:100000000C942A000C94E8030C9447000C944700CD
:100010000C9447000C9447000C9447000C94470044
:100020000C9447000C9447000C9447000C94470034
:100030000C9447000C9447000C9447000C94470024
:100040000C9447000C9447000C9447000C94470014
:100050000C94470011241FBECFE5D4E0DEBFCDBF16
:1000600010E0A0E6B0E0E2E6FCE002C005900D92F0
:10007000A836B107D9F720E0A8E6B0E001C01D928C
:10008000A938B207E1F70E94FD030C942F060C94E7
:1000900000009B01AC016F3F71058105910529F0BE
:1000A00024F02FEF30E040E050E055231CF420E036
:1000B00030E0A901A0E2BEE40E94F3052FEF30E09A
:1000C00040E050E00E94D4053BBD2ABD08959B014D
:1000D000AC016F3F71058105910529F024F02FEFE8
:1000E00030E040E050E055231CF420E030E0A9016E
:1000F000A0E2BEE40E94F3052FEF30E040E050E0C4
:100100000E94D40539BD28BD08954F925F926F9229
:100110007F928F929F92AF92BF92CF92DF92EF9297
:10012000FF92CF93DF9300D000D0CDB7DEB74090E1
:100130008000509081006090820070908300409217
:100140007C0050927D0060927E0070927F00209132
:1001500068003091690040916A0050916B00609195
:1001600078007091790080917A0090917B000E94D4
:100170004B046B017C01609378007093790080934D
:100180007A0090937B0020916C0030916D0040913B
:100190006E0050916F00C301B2010E944A044B01EE
:1001A0005C01609374007093750080937600909367
:1001B0007700209164003091650040916600509175
:1001C0006700C301B2010E94670569837A838B834C
:1001D0009C8320918400309185004091860050914D
:1001E0008700C701B6010E9467059B01AC016981C8
:1001F0007A818B819C810E944B0469837A838B83F3
:100200009C83209160003091610040916200509188
:100210006300C501B4010E9467059B01AC016981BF
:100220007A818B819C810E944B0460937000709353
:1002300071008093720090937300C0926800D09216
:100240006900E0926A00F0926B0040926C0050925C
:100250006D0060926E0070926F000F900F900F9083
:100260000F90DF91CF91FF90EF90DF90CF90BF90F4
:10027000AF909F908F907F906F905F904F90089578
:1002800088B3816088BB88B38D7F88BB88B3846066
:1002900088BB88B3877F88BB089588B38E7F88BB6F
:1002A00088B38D7F88BB88B3846088BB88B3877F21
:1002B00088BB089588B3816088BB88B38D7F88BB75
:1002C00088B38B7F88BB88B3877F88BB089588B34A
:1002D0008E7F88BB88B3826088BB88B3846088BB0C
:1002E00088B3877F88BB089588B3816088BB88B353
:1002F0008D7F88BB88B38B7F88BB88B3886088BBC1
:10030000089588B38E7F88BB88B38D7F88BB88B300
:100310008B7F88BB88B3877F88BB0895C89B0AC042
:10032000C99B0AC0CA990AC0CB9B0AC0CC990AC013
:1003300080E009C080E007C080E005C080E003C025
:1003400080E001C081E0882359F010928000109273
:10035000810010928200109283000E944001089553
:10036000C89B08C0C99906C0CA9904C0CB9B02C0EB
:10037000CC9981E0882379F080E090E0A0E8BFEBA1
:100380008093800090938100A0938200B0938300BB
:100390000E945A010895C89B08C0C99B06C0CA990B
:1003A00004C0CB9902C0CC9981E0882379F080E029
:1003B00090E0A0E8BFE38093800090938100A09339
:1003C0008200B09383000E944D010895C89B08C02D
:1003D000C99906C0CA9B04C0CB9B02C0CC9981E0DE
:1003E000882379F080E090E0A0E0B0EC809380007A
:1003F00090938100A0938200B09383000E945A01E1
:100400000895C89B08C0C99B06C0CA9B04C0CB996D
:1004100002C0CC9981E0882379F080E090E0A0E0F0
:10042000B0E48093800090938100A0938200B09309
:1004300083000E944D010895C89908C0C99906C05B
:10044000CA9B04C0CB9B02C0CC9981E0882379F081
:1004500080E090E0A0E4B0EC809380009093810075
:10046000A0938200B09383000E945A010895C89B14
:1004700008C0C99B06C0CA9B04C0CB9902C0CC9BD4
:1004800081E0882379F080E090E0A0E4B0E48093FC
:10049000800090938100A0938200B09383000E941B
:1004A0004D010895C89908C0C99B06C0CA9B04C0E5
:1004B000CB9B02C0CC9981E0882379F080E090E06A
:1004C000A0E8B0EC8093800090938100A09382001C
:1004D000B09383000E945A010895C89B08C0C99B2D
:1004E00006C0CA9B04C0CB9B02C0CC9B81E0882382
:1004F00079F080E090E0A0E8B0E4809380009093F1
:100500008100A0938200B09383000E944D01089562
:10051000C89908C0C99906C0CA9904C0CB9B02C03B
:10052000CC9981E0882369F080E090E0A0E2B1E41A
:100530008093800090938100A0938200B093830009
:100540000895C89B08C0C99B06C0CA9904C0CB992E
:1005500002C0CC9B81E0882369F080E090E0A0E3BA
:10056000B1E48093800090938100A0938200B093C7
:1005700083000895C89B08C0C99B06C0CA9B04C0DD
:10058000CB9B02C0CC9981E0882369F080E090E0A9
:10059000A0E4B1E48093800090938100A093820056
:1005A000B09383000895C89908C0C99906C0CA9934
:1005B00004C0CB9902C0CC9B81E0882361F080E02D
:1005C00090E0A0E5B1E48093800090938100A09337
:1005D0008200B09383000895CF92DF92EF92FF9252
:1005E000C0908000D0908100E0908200F090830065
:1005F00020E030E040E251E4C701B6010E94B704B8
:10060000811129C066E970E080E090E00E94490015
:1006100066E970E080E090E00E9467000E9474014B
:100620000E948E0160918000709181008091820013
:100630009091830020E030E0A9010E94B704882354
:1006400021F0CD9B04C080E003C080E001C081E0C8
:100650008111D8CFB8C020E030E040E351E4C701B9
:10066000B6010E94B704811129C066E970E080E0FC
:1006700090E00E94490066E970E080E090E00E940E
:1006800067000E9467010E948E0160918000709156
:100690008100809182009091830020E030E0A901E8
:1006A0000E94B704882321F0CD9B04C080E003C0E2
:1006B00080E001C081E08111D8CF85C020E030E02A
:1006C00040E451E4C701B6010E94B70481113CC067
:1006D000CD9918C00E94400166E970E080E090E08A
:1006E0000E94490066E970E080E090E00E946700A7
:1006F0002FEF85EA9EE0215080409040E1F700C056
:10070000000061C0CD9B5FC066E970E080E090E0D2
:100710000E94490066E970E080E090E00E94670076
:100720000E9467010E948E0120E030E0A9016091E3
:1007300080007091810080918200909183000E94DE
:10074000B7048111E1CF3FC020E030E040E551E443
:10075000C701B6010E94B704811135C0CD9933C0DD
:100760000E94400166E970E080E090E00E9449004C
:1007700066E970E080E090E00E9467002FEF84E37C
:100780009CE0215080409040E1F700C00000C899F3
:100790000CC0C9990CC0CA990CC0CB990CC0CC999B
:1007A0000CC0CD9B0CC080E00BC080E009C080E095
:1007B00007C080E005C080E003C080E001C081E0A8
:1007C00081110E948101FF90EF90DF90CF900895FA
:1007D0001F920F920FB60F9211248F938091880071
:1007E0008F5F80938800833011F4109288008F917E
:1007F0000F900FBE0F901F901895109288001ABA94
:100800008FEF87BB18BA81BB81B38B7F81BB82B36B
:10081000846082BB87B38F7E87BB88B3806188BBCF
:1008200082EA8FBD8AE18EBD8EE487BD80E286BDFF
:100830008BB780648BBF85B7846085BF78940E9436
:100840008E010E9485000E94EC0220917000309180
:100850007100409172005091730060E070E08CED87
:1008600092E40E944A040E94BC040E94670020E0B7
:1008700030E04CED52E46091700070917100809115
:100880007200909173000E944B040E94BC040E946D
:100890004900D5CF5058BB27AA270E9462040C9468
:1008A0002D050E941F0538F00E94260520F039F41E
:1008B0009F3F19F426F40C941C050EF4E095E7FB19
:1008C0000C941605E92F0E943E0558F3BA176207EB
:1008D00073078407950720F079F4A6F50C9460055A
:1008E0000EF4E0950B2EBA2FA02D0B01B90190014B
:1008F0000C01CA01A0011124FF27591B99F0593F8F
:1009000050F4503E68F11A16F040A22F232F342FD6
:100910004427585FF3CF469537952795A795F04024
:100920005395C9F77EF41F16BA0B620B730B840B39
:10093000BAF09150A1F0FF0FBB1F661F771F881FF1
:10094000C2F70EC0BA0F621F731F841F48F4879549
:1009500077956795B795F7959E3F08F0B0CF93953B
:10096000880F08F09927EE0F9795879508950E94B4
:10097000F20408F481E008950E94C3046894B11160
:100980000C94610508950E94460588F09F5798F0E1
:10099000B92F9927B751B0F0E1F0660F771F881F84
:1009A000991F1AF0BA95C9F714C0B13091F00E949E
:1009B0006005B1E008950C946005672F782F8827B3
:1009C000B85F39F0B93FCCF3869577956795B395C5
:1009D000D9F73EF490958095709561957F4F8F4F34
:1009E0009F4F0895990F0008550FAA0BE0E8FEEFFE
:1009F00016161706E807F907C0F012161306E407E3
:100A0000F50798F0621B730B840B950B39F40A26DB
:100A100061F0232B242B252B21F408950A2609F4B9
:100A2000A140A6958FEF811D811D089597F99F67BD
:100A300080E870E060E008959FEF80EC0895002466
:100A40000A941616170618060906089500240A9433
:100A500012161306140605060895092E0394000CB9
:100A600011F4882352F0BB0F40F4BF2B11F460FF48
:100A700004C06F5F7F4F8F4F9F4F089557FD905871
:100A8000440F551F59F05F3F71F04795880F97FB52
:100A9000991F61F09F3F79F087950895121613060C
:100AA0001406551FF2CF4695F1DF08C0161617063B
:100AB0001806991FF1CF8695710561050894089570
:100AC000E894BB2766277727CB0197F908950E9402
:100AD0007A050C942D050E941F0538F00E9426050A
:100AE00020F0952311F00C9416050C941C0511248C
:100AF0000C9461050E943E0570F3959FC1F3950F1C
:100B000050E0551F629FF001729FBB27F00DB11D91
:100B1000639FAA27F00DB11DAA1F649F6627B00D21
:100B2000A11D661F829F2227B00DA11D621F739F0A
:100B3000B00DA11D621F839FA00D611D221F749F18
:100B40003327A00D611D231F849F600D211D822F5F
:100B5000762F6A2F11249F5750409AF0F1F0882386
:100B60004AF0EE0FFF1FBB1F661F771F881F9150B3
:100B70005040A9F79E3F510580F00C9416050C9447
:100B800061055F3FE4F3983ED4F3869577956795CA
:100B9000B795F795E7959F5FC1F7FE2B880F911DDD
:100BA0009695879597F90895052E97FB1EF4009466
:100BB0000E94EB0557FD07D00E94FE0507FC03D0FD
:100BC0004EF40C94EB0550954095309521953F4F90
:100BD0004F4F5F4F089590958095709561957F4F29
:100BE0008F4F9F4F08950E942006A59F900DB49FA0
:100BF000900DA49F800D911D11240895A1E21A2E3D
:100C0000AA1BBB1BFD010DC0AA1FBB1FEE1FFF1FB0
:100C1000A217B307E407F50720F0A21BB30BE40B00
:100C2000F50B661F771F881F991F1A9469F7609547
:100C30007095809590959B01AC01BD01CF01089501
:100C4000A29FB001B39FC001A39F700D811D11240D
:100C5000911DB29F700D811D1124911D0895F8946E
:020C6000FFCFC4
:080C6200000070410000204277
:00000001FF
